{
  "contractName": "Ownable",
  "abi": [
    {
      "inputs": [],
      "name": "feeAccount",
      "outputs": [
        {
          "internalType": "address",
          "name": "",
          "type": "address"
        }
      ],
      "stateMutability": "view",
      "type": "function"
    },
    {
      "inputs": [],
      "name": "owner",
      "outputs": [
        {
          "internalType": "address",
          "name": "",
          "type": "address"
        }
      ],
      "stateMutability": "view",
      "type": "function"
    },
    {
      "inputs": [],
      "name": "feeOwner",
      "outputs": [
        {
          "internalType": "address",
          "name": "",
          "type": "address"
        }
      ],
      "stateMutability": "view",
      "type": "function"
    },
    {
      "inputs": [
        {
          "internalType": "address",
          "name": "_newOwner",
          "type": "address"
        }
      ],
      "name": "changeOwner",
      "outputs": [],
      "stateMutability": "nonpayable",
      "type": "function"
    },
    {
      "inputs": [
        {
          "internalType": "address",
          "name": "_newFeeOwner",
          "type": "address"
        }
      ],
      "name": "changefeeOwner",
      "outputs": [],
      "stateMutability": "nonpayable",
      "type": "function"
    }
  ],
  "bytecode": "0x608060405234801561001057600080fd5b5061047c806100206000396000f3fe608060405234801561001057600080fd5b5060043610610074576000357c010000000000000000000000000000000000000000000000000000000090048063612c9d751461007957806365e17c9d146100955780638da5cb5b146100b3578063a6f9dae1146100d1578063b9818be1146100ed575b600080fd5b610093600480360381019061008e9190610339565b61010b565b005b61009d6101dd565b6040516100aa91906103b1565b60405180910390f35b6100bb610203565b6040516100c891906103b1565b60405180910390f35b6100eb60048036038101906100e69190610339565b610228565b005b6100f56102fa565b60405161010291906103b1565b60405180910390f35b3373ffffffffffffffffffffffffffffffffffffffff166000809054906101000a900473ffffffffffffffffffffffffffffffffffffffff1673ffffffffffffffffffffffffffffffffffffffff161461019a576040517f08c379a0000000000000000000000000000000000000000000000000000000008152600401610191906103cc565b60405180910390fd5b806000806101000a81548173ffffffffffffffffffffffffffffffffffffffff021916908373ffffffffffffffffffffffffffffffffffffffff16021790555050565b600160009054906101000a900473ffffffffffffffffffffffffffffffffffffffff1681565b6000809054906101000a900473ffffffffffffffffffffffffffffffffffffffff1681565b3373ffffffffffffffffffffffffffffffffffffffff166000809054906101000a900473ffffffffffffffffffffffffffffffffffffffff1673ffffffffffffffffffffffffffffffffffffffff16146102b7576040517f08c379a00000000000000000000000000000000000000000000000000000000081526004016102ae906103cc565b60405180910390fd5b806000806101000a81548173ffffffffffffffffffffffffffffffffffffffff021916908373ffffffffffffffffffffffffffffffffffffffff16021790555050565b6000600160009054906101000a900473ffffffffffffffffffffffffffffffffffffffff16905090565b6000813590506103338161042f565b92915050565b60006020828403121561034b57600080fd5b600061035984828501610324565b91505092915050565b61036b816103fd565b82525050565b600061037e6020836103ec565b91507f4f776e61626c653a2063616c6c6572206973206e6f7420746865206f776e65726000830152602082019050919050565b60006020820190506103c66000830184610362565b92915050565b600060208201905081810360008301526103e581610371565b9050919050565b600082825260208201905092915050565b60006104088261040f565b9050919050565b600073ffffffffffffffffffffffffffffffffffffffff82169050919050565b610438816103fd565b811461044357600080fd5b5056fea264697066735822122017fa4a4f8f57d05e667c0c19113e8e0e13935b3df68af34d6749fd68d89f5adc64736f6c63430006060033",
  "immutableReferences": {},
  "source": "/**\n *SPDX-License-Identifier: GPL-2.0-only\n */\n\n// 我们定义了一个名为`ThreeD`的合约，其中包含了彩票结构体`Lottery`和开奖结果结构体\n// `LotteryResult`，以及购买彩票函数`buyLottery`和开奖函数`drawLottery`。在购买彩\n// 票函数中，我们首先判断当前时间是否在购买截止时间之前，然后判断购买金额是否等于彩\n// 票价格，选中的数字数量是否正确，以及选中的数字是否在范围内。如果所有条件都满足，\n// 我们将购买金额加入奖池，将彩票信息添加到彩票列表中，并触发购买彩票事件。在开奖\n// 函数中，我们首先判断当前时间是否在开奖时间之后，以及是否已经开奖。然后，我们将\n// 开奖结果保存到`lotteryResult`中，并遍历彩票列表，查找中奖者，并将中奖金额转入\n// 中奖者的账户中。最后，我们将奖池金额清零，并触发开奖事件。\n\npragma solidity >=0.6.0 <0.8.0;\npragma experimental ABIEncoderV2;\nimport \"openzeppelin-solidity/contracts/math/SafeMath.sol\";\n\ncontract Ownable {\n    // 合约持有者\n    address public owner;\n\n    // 收费账户地址\n    address public feeAccount;\n\n    function feeOwner() public view returns (address) {\n        return feeAccount;\n    }\n\n    //校验只有创建合约地址才可以给_owner赋值\n    modifier onlyOwner() {\n        require(owner == msg.sender, \"Ownable: caller is not the owner\"); \n        _;\n    }\n\n    // 更改合约持有者\n    function changeOwner(address _newOwner) public onlyOwner {\n        owner = _newOwner;\n    }\n\n    // 更改收费地址\n    function changefeeOwner(address _newFeeOwner) public onlyOwner {\n        owner = _newFeeOwner;\n    }\n}\n\n// 主合约\ncontract ThreeD is Ownable {\n    using SafeMath for uint256; //为了uint256后面使用 sub ,add方法\n\n    // 定义彩票结构体\n    struct Lottery {\n        uint256 id; // 彩票ID\n        uint256[] numbers; // 选中的数字\n        address payable player; // 购买者地址\n        uint256 couple; // 购买了几注\n        uint256 amount; // 购买金额\n        bool claimed; // 中奖状态\n        uint8 prizeType; // 中奖类型 0代表未中奖 1代表1等奖 2代表2等奖 3代表3等奖\n    }\n\n    // 定义开奖结果结构体\n    struct LotteryResult {\n        uint256[] numberResult; // 中奖数字\n        uint256 prizePool; // 奖池金额\n        uint256[] firstWinId; // 一等中奖者ID数组，用来派奖\n        uint256[] secondWinId; // 二等中奖者ID数组，用来派奖\n        uint256[] thirdWinId; // 三等中奖者ID数组，用来派奖\n        uint256 countFirst; // 中奖注数，一等奖\n        uint256 countSecond; // 中奖注数，二等奖\n        uint256 countThird; // 中奖注数，三等奖\n    }\n\n    // 定义彩票ID计数器，做为key是唯一的，address并不唯一，因为同一个地址可以购买多次\n    uint256 public lotteryId;\n\n    // 定义彩票价格\n    uint256 public constant ticketPrice = 0.1 ether;\n\n    // 定义彩票期数\n    uint256 public round = 1;\n\n    // 定义三位随机开奖数字\n    uint256[] public threeRandomNumbers;\n\n    // 定义彩票选号范围\n    uint256 public constant numberRange = 10;\n\n    // 定义彩票数量\n    uint256 public constant lotterySize = 3;\n\n    // 定义上次执行的时间戳\n    uint256 public lastExecuted;\n\n    // 定义彩票奖池\n    uint256 public prizePool;\n\n    // 定义中奖结果\n    LotteryResult public lotteryResult;\n\n    // 定义彩票购买列表 \n    // key:value => id : Lottery\n    mapping(uint256 => Lottery) public lotteries;\n\n    // 定义中奖历史记录 key:value = round ：LotteryResult\n    mapping(uint256 => LotteryResult) public lotteriesHis;\n\n    // key:key:value = round:playeraddress:Lottery[] 期数：地址：购买彩票数组\n    mapping(uint256 => mapping(address => Lottery[])) public allHis;\n\n    // 定义购买彩票事件\n    event BuyLottery(\n        uint256 indexed round,\n        address indexed player,\n        uint256 indexed lotteryId,\n        uint256[] numbers,\n        uint256 couple,\n        uint256 amount\n    );\n\n    // 定义开奖事件\n    event DrawLottery(\n        uint256[] threeRandomNumbers,\n        uint256 prizePool,\n        uint256 countFirst,\n        uint256 countSecond,\n        uint256 countThird\n    );\n\n    constructor(address _feeAccount) public {\n        owner = msg.sender; // 初始设置部署账户为合约持有者\n        feeAccount = _feeAccount; // 传入手续费接收地址\n    }\n\n    // 定义生成三位奖池数字函数\n    // 定义了一个公共的数组`randomNumbers`，用于存储生成的随机数。`generateRandomNumbers`函数用于生成随机数，并将它们存储在数组中。我们使用`keccak256`哈希函数来生成随机数，它接受一个字节数组作为输入，并返回一个256位的哈希值。我们使用`abi.encodePacked`函数将当前块的时间戳、难度和循环变量`i`打包成一个字节数组，作为`keccak256`函数的输入。然后，我们使用模运算符将哈希值限制在0到9之间，以确保生成的随机数在10以内。最后，我们将随机数存储在数组中。\n    function generateRandomNumbers() private {\n        for (uint256 i = 0; i < lotterySize; i++) {\n            uint256 randomNumber = uint256(\n                keccak256(\n                    abi.encodePacked(block.timestamp, block.difficulty, i)\n                )\n            ) % 10;\n            threeRandomNumbers.push(randomNumber);\n        }\n    }\n\n    // 定义购买彩票函数，是随机投注还是顺序投注，用前端处理，最后传入的都是一个三个数字的数组\n    function buyLottery(\n        uint256[] memory _numbers,\n        uint256 _couple\n    ) public payable {\n        // 上次开奖10分钟以后才能再次购买彩票\n        // require(block.timestamp >= lastExecuted + 600, \"Can only buy once every 10 minutes\");\n        require(msg.value == ticketPrice.mul(_couple),\"The ticket price is 0.1 ether.\");\n        require(_numbers.length == lotterySize,\"The number of selected numbers is incorrect.\");\n        for (uint256 i = 0; i < lotterySize; i++) {\n            require(\n                _numbers[i] < numberRange,\n                \"The selected number is out of range.\"\n            );\n        }\n        // 必须至少购买一注\n        require(_couple >= 1, \"you must at least buy one couple\");\n\n        prizePool = prizePool.add(msg.value); // 投注金额 = 投注数*投一注的金额\n        Lottery memory temLottery;\n        temLottery = Lottery(\n            lotteryId,\n            _numbers,\n            payable(msg.sender),\n            _couple,\n            msg.value,\n            false,\n            0\n        );\n        lotteries[lotteryId] = temLottery;\n        emit BuyLottery(round, msg.sender, lotteryId, _numbers, _couple, msg.value);\n        lotteryId++;\n    }\n    // 定义开奖函数\n    function drawLottery() public returns (bool) {\n        // 每次开奖前，先清空上一轮的数组，防止发生错误或者异常情况下，未清空\n        restoreRandomNumbers();\n        // 超过上次开奖9分钟后才能继续下一轮开奖\n        // require(block.timestamp >= lastExecuted + 500, \"Can only generate once every 9 minutes\");\n        // lotteryId = 0，没有人购买，不开奖，继续等待下一个开奖周期\n        require(lotteryId > 0, \"No bets,will start the next round.\"); \n        // 上一轮开奖账号已经清空\n        require(threeRandomNumbers.length == 0, \"The lottery has been drawn.\");\n        generateRandomNumbers(); // 生成三位随机开奖号\n        require(threeRandomNumbers.length == lotterySize,\"The number of selected numbers is incorrect.\");\n        for (uint256 i = 0; i < lotterySize; i++) {\n            require(\n                threeRandomNumbers[i] < numberRange,\n                \"The prize opening number is out of range.\"\n            );\n        }\n\n        lotteryResult.numberResult = threeRandomNumbers; // 记录开奖数字\n        lotteryResult.prizePool = prizePool; // 记录奖池金额\n\n        uint256 countFirst = 0; // 中奖注数，一等奖\n        uint256 countSecond = 0; // 中奖注数，二等奖\n        uint256 countThird = 0; // 中奖注数，三等奖\n\n        for (uint256 i = 0; i < lotteryId; i++) {\n            // 一等奖，三个数字都相同，不限顺序\n            if (\n                lotteries[i].claimed == false &&\n                compareNumbers(lotteries[i].numbers, threeRandomNumbers) == 3\n            ) {\n                lotteryResult.firstWinId.push(lotteries[i].id); //记录中奖者ID\n                lotteries[i].claimed = true; // 设置中奖状态为True\n                lotteries[i].prizeType = 1; // 设置中奖类型为1等奖\n                allHis[round][lotteries[i].player].push(lotteries[i]);  //同一期下，同一个地址购买及中奖情况\n                countFirst = countFirst.add(lotteries[i].couple); // 中奖注数 = 中奖用户的投注注数相加\n            } else if (\n                // 二等奖，两个数字都相同，不限顺序\n                lotteries[i].claimed == false &&\n                compareNumbers(lotteries[i].numbers, threeRandomNumbers) == 2\n            ) {\n                lotteryResult.secondWinId.push(lotteries[i].id); //记录中奖者ID\n                lotteries[i].claimed = true; // 设置中奖状态为True\n                lotteries[i].prizeType = 2; // 设置中奖类型为2等奖\n                allHis[round][lotteries[i].player].push(lotteries[i]);  //同一期下，同一个地址购买及中奖情况\n                countSecond = countSecond.add(lotteries[i].couple); // 中奖注数 = 中奖用户的投注注数相加\n            } else if (\n                // 三等奖，一个数字相同，不限顺序\n                lotteries[i].claimed == false &&\n                compareNumbers(lotteries[i].numbers, threeRandomNumbers) == 1\n            ) {\n                lotteryResult.thirdWinId.push(lotteries[i].id); //记录中奖者ID\n                lotteries[i].claimed = true; // 设置中奖状态为True\n                lotteries[i].prizeType = 3; // 设置中奖类型为3等奖\n                allHis[round][lotteries[i].player].push(lotteries[i]);  //同一期下，同一个地址购买及中奖情况 \n                countThird = countThird.add(lotteries[i].couple); // 中奖注数 = 中奖用户的投注注数相加\n            } else {\n                lotteries[i].claimed = false; // 中奖状态保持为false\n                lotteries[i].prizeType = 0; // 设置中奖类型保持为没中奖\n                allHis[round][lotteries[i].player].push(lotteries[i]);  //同一期下，同一个地址购买及中奖情况 \n            }\n        }\n\n        // 将中奖人数挂载在公共界面\n        lotteryResult.countFirst = countFirst;\n        lotteryResult.countSecond = countSecond;\n        lotteryResult.countThird = countThird;\n        // 派奖\n        bonusLottery();\n        emit DrawLottery(threeRandomNumbers,prizePool,countFirst,countSecond,countThird);\n        return true;\n    }\n\n    // 派奖函数\n    function bonusLottery() public {\n        uint256 firstPool = prizePool.div(100).mul(40); // 一等奖奖池\n        uint256 secondPool = prizePool.div(100).mul(20); // 二等奖奖池\n        uint256 thirdPool = prizePool.div(100).mul(10); // 三等奖奖池\n        uint256 handlingFee = prizePool.div(100).mul(10); // 手续费\n        uint256 accPool = prizePool.div(100).mul(20); // 拿出20%放入下一轮奖池\n\n        uint256 firstBalance = 0; // 派奖后一等奖余额\n        uint256 secondBalance = 0; // 派奖后二等奖余额\n        uint256 thirdBalance = 0; // 派奖后三等奖余额\n        if (\n            lotteryResult.countFirst > 0 ||\n            lotteryResult.countSecond > 0 ||\n            lotteryResult.countThird > 0\n        ) {\n            // 如果一等奖中奖人数不为空\n            if (lotteryResult.countFirst > 0) {\n                uint256 firstPerPrize = firstPool.div(lotteryResult.countFirst);\n                for (uint256 i = 0; i < lotteryResult.firstWinId.length; i++) {\n                    lotteries[lotteryResult.firstWinId[i]].player.transfer(\n                        firstPerPrize.mul(\n                            lotteries[lotteryResult.firstWinId[i]].couple\n                        )\n                    );\n                }\n                firstBalance = 0;\n            } else {\n                firstBalance = firstPool;\n            }\n\n            // 如果二等奖中奖人数不为空\n            if (lotteryResult.countSecond > 0) {\n                uint256 secondPerPrize = secondPool.div(\n                    lotteryResult.countSecond\n                );\n                for (uint256 i = 0; i < lotteryResult.secondWinId.length; i++) {\n                    lotteries[lotteryResult.secondWinId[i]].player.transfer(\n                        secondPerPrize.mul(\n                            lotteries[lotteryResult.secondWinId[i]].couple\n                        )\n                    );\n                }\n                secondBalance = 0;\n            } else {\n                secondBalance = secondPool;\n            }\n\n            // 如果三等奖中奖人数不为空\n            if (lotteryResult.countThird > 0) {\n                uint256 thirdPerPrize = thirdPool.div(lotteryResult.countThird);\n                for (uint256 i = 0; i < lotteryResult.thirdWinId.length; i++) {\n                    lotteries[lotteryResult.thirdWinId[i]].player.transfer(\n                        thirdPerPrize.mul(\n                            lotteries[lotteryResult.thirdWinId[i]].couple\n                        )\n                    );\n                }\n                thirdBalance = 0;\n            } else {\n                thirdBalance = thirdPool;\n            }\n            payable(feeAccount).transfer(handlingFee); // 收取手续费\n            // 下一轮的奖金池初始值，等于三个池子剩余的奖金 + 20%的累积奖池\n            prizePool = firstBalance + secondBalance + thirdBalance + accPool;\n            // 记录这一期的中奖期数和这一期的对应的中奖结果，派奖执行完成才记录\n            lotteriesHis[round] = lotteryResult;\n            round++; // 期数加1\n        } else {\n            // 如果三个奖金池都没人中奖\n            payable(feeAccount).transfer(handlingFee); // 收取手续费\n            // 下一轮的奖金池初始值，等于本期奖池 - 10%的手续费\n            prizePool = prizePool - handlingFee;\n            // 记录这一期的中奖期数和这一期的对应的中奖结果，派奖执行完成才记录\n            lotteriesHis[round] = lotteryResult;\n            round++; // 期数加1\n        }\n        // 清除上一轮状态\n        restoreState();\n    }\n\n    // 比较两个数字数组中相同的数字个数\n    function compareNumbers(uint256[] memory _arr1,uint256[] memory _arr2) private pure returns (uint8) {\n        // 开奖数组和用户选择的数组长度必须相同\n        require(_arr1.length == _arr2.length,\"The number length of selected and opening must same\");\n        uint8 matches = 0;\n        bool[] memory checked = new bool[](3);\n        for (uint8 i = 0; i < lotterySize; i++) {\n            for (uint8 j = 0; j < lotterySize; j++) {\n                if (_arr1[i] == _arr2[j] && !checked[j]) {\n                    matches++;\n                    checked[j] = true;\n                    break;\n                }\n            }\n        }\n        return matches;\n    }\n\n    // 清空本轮开奖记录\n    function restoreState() private {\n        // 清除lotteries的值\n        for (uint256 i = 0; i < lotteryId; i++) {\n            delete lotteries[i];\n        }\n        delete lotteryResult; // 清空中奖结果\n        delete lotteryId; // 清空中奖ID\n        delete threeRandomNumbers; // 清空上一轮的中奖号\n    }\n\n    // 清空中奖号\n    function restoreRandomNumbers() private {\n        delete threeRandomNumbers; \n    }\n\n    // 读取历史开奖数字\n    function readLastWinNumbers() public view returns (uint256[] memory) {\n        return lotteriesHis[round.sub(1)].numberResult;\n    }\n\n    // 读取中奖历史\n    function readLotteriesHis(uint256 _couple) public view returns(\n        uint256[] memory,\n        uint256,\n        uint256,\n        uint256,\n        uint256 \n    ){\n       return (\n        lotteriesHis[_couple].numberResult,\n        lotteriesHis[_couple].prizePool,\n        lotteriesHis[_couple].countFirst,\n        lotteriesHis[_couple].countSecond,\n        lotteriesHis[_couple].countThird\n       );\n    } \n\n    // 读取购买及中奖历史\n    function readAllHis(uint256 _round,address _address) public view returns(\n        Lottery[] memory\n    ){\n        Lottery[] memory newLotteryArray = allHis[_round][_address];\n        return newLotteryArray;\n    }\n}",
  "sourcePath": "D:\\项目\\React_自写彩票缩小版_20231030\\lottery_ticket\\contracts\\ThreeD.sol",
  "compiler": {
    "name": "solc",
    "version": "0.6.6+commit.6c089d02.Emscripten.clang"
  },
  "schemaVersion": "3.4.16",
  "updatedAt": "2023-11-11T04:14:41.136Z",
  "devdoc": {
    "methods": {}
  },
  "userdoc": {
    "methods": {}
  }
}