{
  "contractName": "ThreeD",
  "abi": [
    {
      "inputs": [
        {
          "internalType": "address",
          "name": "_feeAccount",
          "type": "address"
        }
      ],
      "stateMutability": "nonpayable",
      "type": "constructor"
    },
    {
      "anonymous": false,
      "inputs": [
        {
          "indexed": true,
          "internalType": "uint256",
          "name": "round",
          "type": "uint256"
        },
        {
          "indexed": true,
          "internalType": "address",
          "name": "player",
          "type": "address"
        },
        {
          "indexed": true,
          "internalType": "uint256",
          "name": "lotteryId",
          "type": "uint256"
        },
        {
          "indexed": false,
          "internalType": "uint256[]",
          "name": "numbers",
          "type": "uint256[]"
        },
        {
          "indexed": false,
          "internalType": "uint256",
          "name": "couple",
          "type": "uint256"
        },
        {
          "indexed": false,
          "internalType": "uint256",
          "name": "amount",
          "type": "uint256"
        }
      ],
      "name": "BuyLottery",
      "type": "event"
    },
    {
      "anonymous": false,
      "inputs": [
        {
          "indexed": false,
          "internalType": "uint256[]",
          "name": "threeRandomNumbers",
          "type": "uint256[]"
        },
        {
          "indexed": false,
          "internalType": "uint256",
          "name": "prizePool",
          "type": "uint256"
        },
        {
          "indexed": false,
          "internalType": "uint256",
          "name": "countFirst",
          "type": "uint256"
        },
        {
          "indexed": false,
          "internalType": "uint256",
          "name": "countSecond",
          "type": "uint256"
        },
        {
          "indexed": false,
          "internalType": "uint256",
          "name": "countThird",
          "type": "uint256"
        }
      ],
      "name": "DrawLottery",
      "type": "event"
    },
    {
      "inputs": [
        {
          "internalType": "uint256",
          "name": "",
          "type": "uint256"
        },
        {
          "internalType": "address",
          "name": "",
          "type": "address"
        },
        {
          "internalType": "uint256",
          "name": "",
          "type": "uint256"
        }
      ],
      "name": "allHis",
      "outputs": [
        {
          "internalType": "uint256",
          "name": "id",
          "type": "uint256"
        },
        {
          "internalType": "address payable",
          "name": "player",
          "type": "address"
        },
        {
          "internalType": "uint256",
          "name": "couple",
          "type": "uint256"
        },
        {
          "internalType": "uint256",
          "name": "amount",
          "type": "uint256"
        },
        {
          "internalType": "bool",
          "name": "claimed",
          "type": "bool"
        },
        {
          "internalType": "uint8",
          "name": "prizeType",
          "type": "uint8"
        }
      ],
      "stateMutability": "view",
      "type": "function",
      "constant": true
    },
    {
      "inputs": [
        {
          "internalType": "address",
          "name": "_newOwner",
          "type": "address"
        }
      ],
      "name": "changeOwner",
      "outputs": [],
      "stateMutability": "nonpayable",
      "type": "function"
    },
    {
      "inputs": [
        {
          "internalType": "address",
          "name": "_newFeeOwner",
          "type": "address"
        }
      ],
      "name": "changefeeOwner",
      "outputs": [],
      "stateMutability": "nonpayable",
      "type": "function"
    },
    {
      "inputs": [],
      "name": "feeAccount",
      "outputs": [
        {
          "internalType": "address",
          "name": "",
          "type": "address"
        }
      ],
      "stateMutability": "view",
      "type": "function",
      "constant": true
    },
    {
      "inputs": [],
      "name": "feeOwner",
      "outputs": [
        {
          "internalType": "address",
          "name": "",
          "type": "address"
        }
      ],
      "stateMutability": "view",
      "type": "function",
      "constant": true
    },
    {
      "inputs": [],
      "name": "lastExecuted",
      "outputs": [
        {
          "internalType": "uint256",
          "name": "",
          "type": "uint256"
        }
      ],
      "stateMutability": "view",
      "type": "function",
      "constant": true
    },
    {
      "inputs": [
        {
          "internalType": "uint256",
          "name": "",
          "type": "uint256"
        }
      ],
      "name": "lotteries",
      "outputs": [
        {
          "internalType": "uint256",
          "name": "id",
          "type": "uint256"
        },
        {
          "internalType": "address payable",
          "name": "player",
          "type": "address"
        },
        {
          "internalType": "uint256",
          "name": "couple",
          "type": "uint256"
        },
        {
          "internalType": "uint256",
          "name": "amount",
          "type": "uint256"
        },
        {
          "internalType": "bool",
          "name": "claimed",
          "type": "bool"
        },
        {
          "internalType": "uint8",
          "name": "prizeType",
          "type": "uint8"
        }
      ],
      "stateMutability": "view",
      "type": "function",
      "constant": true
    },
    {
      "inputs": [
        {
          "internalType": "uint256",
          "name": "",
          "type": "uint256"
        }
      ],
      "name": "lotteriesHis",
      "outputs": [
        {
          "internalType": "uint256",
          "name": "prizePool",
          "type": "uint256"
        },
        {
          "internalType": "uint256",
          "name": "countFirst",
          "type": "uint256"
        },
        {
          "internalType": "uint256",
          "name": "countSecond",
          "type": "uint256"
        },
        {
          "internalType": "uint256",
          "name": "countThird",
          "type": "uint256"
        }
      ],
      "stateMutability": "view",
      "type": "function",
      "constant": true
    },
    {
      "inputs": [],
      "name": "lotteryId",
      "outputs": [
        {
          "internalType": "uint256",
          "name": "",
          "type": "uint256"
        }
      ],
      "stateMutability": "view",
      "type": "function",
      "constant": true
    },
    {
      "inputs": [],
      "name": "lotteryResult",
      "outputs": [
        {
          "internalType": "uint256",
          "name": "prizePool",
          "type": "uint256"
        },
        {
          "internalType": "uint256",
          "name": "countFirst",
          "type": "uint256"
        },
        {
          "internalType": "uint256",
          "name": "countSecond",
          "type": "uint256"
        },
        {
          "internalType": "uint256",
          "name": "countThird",
          "type": "uint256"
        }
      ],
      "stateMutability": "view",
      "type": "function",
      "constant": true
    },
    {
      "inputs": [],
      "name": "lotterySize",
      "outputs": [
        {
          "internalType": "uint256",
          "name": "",
          "type": "uint256"
        }
      ],
      "stateMutability": "view",
      "type": "function",
      "constant": true
    },
    {
      "inputs": [],
      "name": "numberRange",
      "outputs": [
        {
          "internalType": "uint256",
          "name": "",
          "type": "uint256"
        }
      ],
      "stateMutability": "view",
      "type": "function",
      "constant": true
    },
    {
      "inputs": [],
      "name": "owner",
      "outputs": [
        {
          "internalType": "address",
          "name": "",
          "type": "address"
        }
      ],
      "stateMutability": "view",
      "type": "function",
      "constant": true
    },
    {
      "inputs": [],
      "name": "prizePool",
      "outputs": [
        {
          "internalType": "uint256",
          "name": "",
          "type": "uint256"
        }
      ],
      "stateMutability": "view",
      "type": "function",
      "constant": true
    },
    {
      "inputs": [],
      "name": "round",
      "outputs": [
        {
          "internalType": "uint256",
          "name": "",
          "type": "uint256"
        }
      ],
      "stateMutability": "view",
      "type": "function",
      "constant": true
    },
    {
      "inputs": [
        {
          "internalType": "uint256",
          "name": "",
          "type": "uint256"
        }
      ],
      "name": "threeRandomNumbers",
      "outputs": [
        {
          "internalType": "uint256",
          "name": "",
          "type": "uint256"
        }
      ],
      "stateMutability": "view",
      "type": "function",
      "constant": true
    },
    {
      "inputs": [],
      "name": "ticketPrice",
      "outputs": [
        {
          "internalType": "uint256",
          "name": "",
          "type": "uint256"
        }
      ],
      "stateMutability": "view",
      "type": "function",
      "constant": true
    },
    {
      "inputs": [
        {
          "internalType": "uint256[]",
          "name": "_numbers",
          "type": "uint256[]"
        },
        {
          "internalType": "uint256",
          "name": "_couple",
          "type": "uint256"
        }
      ],
      "name": "buyLottery",
      "outputs": [],
      "stateMutability": "payable",
      "type": "function",
      "payable": true
    },
    {
      "inputs": [],
      "name": "drawLottery",
      "outputs": [
        {
          "internalType": "bool",
          "name": "",
          "type": "bool"
        }
      ],
      "stateMutability": "nonpayable",
      "type": "function"
    },
    {
      "inputs": [],
      "name": "bonusLottery",
      "outputs": [],
      "stateMutability": "nonpayable",
      "type": "function"
    },
    {
      "inputs": [],
      "name": "readLastWinNumbers",
      "outputs": [
        {
          "internalType": "uint256[]",
          "name": "",
          "type": "uint256[]"
        }
      ],
      "stateMutability": "view",
      "type": "function",
      "constant": true
    },
    {
      "inputs": [
        {
          "internalType": "uint256",
          "name": "_couple",
          "type": "uint256"
        }
      ],
      "name": "readLotteriesHis",
      "outputs": [
        {
          "internalType": "uint256[]",
          "name": "",
          "type": "uint256[]"
        },
        {
          "internalType": "uint256",
          "name": "",
          "type": "uint256"
        },
        {
          "internalType": "uint256",
          "name": "",
          "type": "uint256"
        },
        {
          "internalType": "uint256",
          "name": "",
          "type": "uint256"
        },
        {
          "internalType": "uint256",
          "name": "",
          "type": "uint256"
        }
      ],
      "stateMutability": "view",
      "type": "function",
      "constant": true
    },
    {
      "inputs": [
        {
          "internalType": "uint256",
          "name": "_round",
          "type": "uint256"
        },
        {
          "internalType": "address",
          "name": "_address",
          "type": "address"
        }
      ],
      "name": "readAllHis",
      "outputs": [
        {
          "components": [
            {
              "internalType": "uint256",
              "name": "id",
              "type": "uint256"
            },
            {
              "internalType": "uint256[]",
              "name": "numbers",
              "type": "uint256[]"
            },
            {
              "internalType": "address payable",
              "name": "player",
              "type": "address"
            },
            {
              "internalType": "uint256",
              "name": "couple",
              "type": "uint256"
            },
            {
              "internalType": "uint256",
              "name": "amount",
              "type": "uint256"
            },
            {
              "internalType": "bool",
              "name": "claimed",
              "type": "bool"
            },
            {
              "internalType": "uint8",
              "name": "prizeType",
              "type": "uint8"
            }
          ],
          "internalType": "struct ThreeD.Lottery[]",
          "name": "",
          "type": "tuple[]"
        }
      ],
      "stateMutability": "view",
      "type": "function",
      "constant": true
    }
  ],
  "bytecode": "0x608060405260016003553480156200001657600080fd5b5060405162003c4238038062003c4283398181016040528101906200003c9190620000db565b336000806101000a81548173ffffffffffffffffffffffffffffffffffffffff021916908373ffffffffffffffffffffffffffffffffffffffff16021790555080600160006101000a81548173ffffffffffffffffffffffffffffffffffffffff021916908373ffffffffffffffffffffffffffffffffffffffff1602179055505062000155565b600081519050620000d5816200013b565b92915050565b600060208284031215620000ee57600080fd5b6000620000fe84828501620000c4565b91505092915050565b600062000114826200011b565b9050919050565b600073ffffffffffffffffffffffffffffffffffffffff82169050919050565b620001468162000107565b81146200015257600080fd5b50565b613add80620001656000396000f3fe60806040526004361061015d576000357c010000000000000000000000000000000000000000000000000000000090048063612c9d75116100d3578063a6f9dae11161008c578063a6f9dae114610470578063b4caf00b14610499578063b9818be1146104d6578063bcc41f5814610501578063d0072cf514610542578063e580f47b1461056d5761015d565b8063612c9d751461037f57806365e17c9d146103a8578063719ce73e146103d357806375b4731b146103fe57806383c49d361461041a5780638da5cb5b146104455761015d565b8063157462d911610125578063157462d9146102535780631c15ff771461029057806327e605ec146102bb578063358f7f3a146102e6578063444ebf8c146103115780635bcaa0a8146103515761015d565b8063082c147d146101625780630c26c5aa146101a45780631209b1f6146101bb5780631398e076146101e6578063146ca53114610228575b600080fd5b34801561016e57600080fd5b5061018960048036038101906101849190612d35565b610598565b60405161019b96959493929190613808565b60405180910390f35b3480156101b057600080fd5b506101b9610635565b005b3480156101c757600080fd5b506101d0610d51565b6040516101dd91906137ed565b60405180910390f35b3480156101f257600080fd5b5061020d60048036038101906102089190612cd0565b610d5d565b60405161021f96959493929190613808565b60405180910390f35b34801561023457600080fd5b5061023d610dd3565b60405161024a91906137ed565b60405180910390f35b34801561025f57600080fd5b5061027a60048036038101906102759190612cd0565b610dd9565b60405161028791906137ed565b60405180910390f35b34801561029c57600080fd5b506102a5610dfa565b6040516102b291906137ed565b60405180910390f35b3480156102c757600080fd5b506102d0610e00565b6040516102dd9190613632565b60405180910390f35b3480156102f257600080fd5b506102fb611cdb565b60405161030891906137ed565b60405180910390f35b34801561031d57600080fd5b5061033860048036038101906103339190612cd0565b611ce0565b6040516103489493929190613869565b60405180910390f35b34801561035d57600080fd5b50610366611d10565b6040516103769493929190613869565b60405180910390f35b34801561038b57600080fd5b506103a660048036038101906103a19190612c53565b611d2e565b005b3480156103b457600080fd5b506103bd611e00565b6040516103ca91906134e1565b60405180910390f35b3480156103df57600080fd5b506103e8611e26565b6040516103f591906137ed565b60405180910390f35b61041860048036038101906104139190612c7c565b611e2c565b005b34801561042657600080fd5b5061042f612145565b60405161043c91906137ed565b60405180910390f35b34801561045157600080fd5b5061045a61214a565b60405161046791906134e1565b60405180910390f35b34801561047c57600080fd5b5061049760048036038101906104929190612c53565b61216f565b005b3480156104a557600080fd5b506104c060048036038101906104bb9190612cf9565b612241565b6040516104cd91906134fc565b60405180910390f35b3480156104e257600080fd5b506104eb6123fa565b6040516104f891906134e1565b60405180910390f35b34801561050d57600080fd5b5061052860048036038101906105239190612cd0565b612424565b60405161053995949392919061357e565b60405180910390f35b34801561054e57600080fd5b50610557612503565b604051610564919061351e565b60405180910390f35b34801561057957600080fd5b50610582612584565b60405161058f91906137ed565b60405180910390f35b601160205282600052604060002060205281600052604060002081815481106105bd57fe5b906000526020600020906006020160009250925050508060000154908060020160009054906101000a900473ffffffffffffffffffffffffffffffffffffffff16908060030154908060040154908060050160009054906101000a900460ff16908060050160019054906101000a900460ff16905086565b60006106606028610652606460065461258a90919063ffffffff16565b6125e090919063ffffffff16565b9050600061068d601461067f606460065461258a90919063ffffffff16565b6125e090919063ffffffff16565b905060006106ba600a6106ac606460065461258a90919063ffffffff16565b6125e090919063ffffffff16565b905060006106e7600a6106d9606460065461258a90919063ffffffff16565b6125e090919063ffffffff16565b905060006107146014610706606460065461258a90919063ffffffff16565b6125e090919063ffffffff16565b90506000809050600080905060008090506000600760050154118061073e57506000600760060154115b8061074d575060006007800154115b15610c1a576000600760050154111561088357600061077a6007600501548a61258a90919063ffffffff16565b905060008090505b60076002018054905081101561087857600f6000600760020183815481106107a657fe5b9060005260206000200154815260200190815260200160002060020160009054906101000a900473ffffffffffffffffffffffffffffffffffffffff1673ffffffffffffffffffffffffffffffffffffffff166108fc61083f600f60006007600201868154811061081357fe5b9060005260206000200154815260200190815260200160002060030154856125e090919063ffffffff16565b9081150290604051600060405180830381858888f1935050505015801561086a573d6000803e3d6000fd5b508080600101915050610782565b506000935050610887565b8792505b600060076006015411156109b85760006108af6007600601548961258a90919063ffffffff16565b905060008090505b6007600301805490508110156109ad57600f6000600760030183815481106108db57fe5b9060005260206000200154815260200190815260200160002060020160009054906101000a900473ffffffffffffffffffffffffffffffffffffffff1673ffffffffffffffffffffffffffffffffffffffff166108fc610974600f60006007600301868154811061094857fe5b9060005260206000200154815260200190815260200160002060030154856125e090919063ffffffff16565b9081150290604051600060405180830381858888f1935050505015801561099f573d6000803e3d6000fd5b5080806001019150506108b7565b5060009250506109bc565b8691505b600060078001541115610aeb5760006109e260078001548861258a90919063ffffffff16565b905060008090505b600760040180549050811015610ae057600f600060076004018381548110610a0e57fe5b9060005260206000200154815260200190815260200160002060020160009054906101000a900473ffffffffffffffffffffffffffffffffffffffff1673ffffffffffffffffffffffffffffffffffffffff166108fc610aa7600f600060076004018681548110610a7b57fe5b9060005260206000200154815260200190815260200160002060030154856125e090919063ffffffff16565b9081150290604051600060405180830381858888f19350505050158015610ad2573d6000803e3d6000fd5b5080806001019150506109ea565b506000915050610aef565b8590505b600160009054906101000a900473ffffffffffffffffffffffffffffffffffffffff1673ffffffffffffffffffffffffffffffffffffffff166108fc869081150290604051600060405180830381858888f19350505050158015610b57573d6000803e3d6000fd5b508381838501010160068190555060076010600060035481526020019081526020016000206000820181600001908054610b92929190612a17565b50600182015481600101556002820181600201908054610bb3929190612a17565b506003820181600301908054610bca929190612a17565b506004820181600401908054610be1929190612a17565b50600582015481600501556006820154816006015560078201548160070155905050600360008154809291906001019190505550610d3f565b600160009054906101000a900473ffffffffffffffffffffffffffffffffffffffff1673ffffffffffffffffffffffffffffffffffffffff166108fc869081150290604051600060405180830381858888f19350505050158015610c82573d6000803e3d6000fd5b50846006540360068190555060076010600060035481526020019081526020016000206000820181600001908054610cbb929190612a17565b50600182015481600101556002820181600201908054610cdc929190612a17565b506003820181600301908054610cf3929190612a17565b506004820181600401908054610d0a929190612a17565b506005820154816005015560068201548160060155600782015481600701559050506003600081548092919060010191905055505b610d47612650565b5050505050505050565b67016345785d8a000081565b600f6020528060005260406000206000915090508060000154908060020160009054906101000a900473ffffffffffffffffffffffffffffffffffffffff16908060030154908060040154908060050160009054906101000a900460ff16908060050160019054906101000a900460ff16905086565b60035481565b60048181548110610de657fe5b906000526020600020016000915090505481565b60055481565b6000610e0a612776565b600060025411610e4f576040517f08c379a0000000000000000000000000000000000000000000000000000000008152600401610e469061364d565b60405180910390fd5b600060048054905014610e97576040517f08c379a0000000000000000000000000000000000000000000000000000000008152600401610e8e9061368d565b60405180910390fd5b610e9f612786565b600360048054905014610ee7576040517f08c379a0000000000000000000000000000000000000000000000000000000008152600401610ede906136ad565b60405180910390fd5b60008090505b6003811015610f5d57600a60048281548110610f0557fe5b906000526020600020015410610f50576040517f08c379a0000000000000000000000000000000000000000000000000000000008152600401610f47906136ed565b60405180910390fd5b8080600101915050610eed565b5060046007600001908054610f73929190612a69565b5060065460076001018190555060008090506000809050600080905060008090505b600254811015611c695760001515600f600083815260200190815260200160002060050160009054906101000a900460ff16151514801561109657506003611091600f600084815260200190815260200160002060010180548060200260200160405190810160405280929190818152602001828054801561103657602002820191906000526020600020905b815481526020019060010190808311611022575b5050505050600480548060200260200160405190810160405280929190818152602001828054801561108757602002820191906000526020600020905b815481526020019060010190808311611073575b505050505061280c565b60ff16145b15611329576007600201600f60008381526020019081526020016000206000015490806001815401808255809150506001900390600052602060002001600090919091909150556001600f600083815260200190815260200160002060050160006101000a81548160ff0219169083151502179055506001600f600083815260200190815260200160002060050160016101000a81548160ff021916908360ff1602179055506011600060035481526020019081526020016000206000600f600084815260200190815260200160002060020160009054906101000a900473ffffffffffffffffffffffffffffffffffffffff1673ffffffffffffffffffffffffffffffffffffffff1673ffffffffffffffffffffffffffffffffffffffff168152602001908152602001600020600f60008381526020019081526020016000209080600181540180825580915050600190039060005260206000209060060201600090919091909150600082015481600001556001820181600101908054611220929190612a17565b506002820160009054906101000a900473ffffffffffffffffffffffffffffffffffffffff168160020160006101000a81548173ffffffffffffffffffffffffffffffffffffffff021916908373ffffffffffffffffffffffffffffffffffffffff16021790555060038201548160030155600482015481600401556005820160009054906101000a900460ff168160050160006101000a81548160ff0219169083151502179055506005820160019054906101000a900460ff168160050160016101000a81548160ff021916908360ff1602179055505050611322600f6000838152602001908152602001600020600301548561297290919063ffffffff16565b9350611c5c565b60001515600f600083815260200190815260200160002060050160009054906101000a900460ff1615151480156114205750600261141b600f60008481526020019081526020016000206001018054806020026020016040519081016040528092919081815260200182805480156113c057602002820191906000526020600020905b8154815260200190600101908083116113ac575b5050505050600480548060200260200160405190810160405280929190818152602001828054801561141157602002820191906000526020600020905b8154815260200190600101908083116113fd575b505050505061280c565b60ff16145b156116b3576007600301600f60008381526020019081526020016000206000015490806001815401808255809150506001900390600052602060002001600090919091909150556001600f600083815260200190815260200160002060050160006101000a81548160ff0219169083151502179055506002600f600083815260200190815260200160002060050160016101000a81548160ff021916908360ff1602179055506011600060035481526020019081526020016000206000600f600084815260200190815260200160002060020160009054906101000a900473ffffffffffffffffffffffffffffffffffffffff1673ffffffffffffffffffffffffffffffffffffffff1673ffffffffffffffffffffffffffffffffffffffff168152602001908152602001600020600f600083815260200190815260200160002090806001815401808255809150506001900390600052602060002090600602016000909190919091506000820154816000015560018201816001019080546115aa929190612a17565b506002820160009054906101000a900473ffffffffffffffffffffffffffffffffffffffff168160020160006101000a81548173ffffffffffffffffffffffffffffffffffffffff021916908373ffffffffffffffffffffffffffffffffffffffff16021790555060038201548160030155600482015481600401556005820160009054906101000a900460ff168160050160006101000a81548160ff0219169083151502179055506005820160019054906101000a900460ff168160050160016101000a81548160ff021916908360ff16021790555050506116ac600f6000838152602001908152602001600020600301548461297290919063ffffffff16565b9250611c5b565b60001515600f600083815260200190815260200160002060050160009054906101000a900460ff1615151480156117aa575060016117a5600f600084815260200190815260200160002060010180548060200260200160405190810160405280929190818152602001828054801561174a57602002820191906000526020600020905b815481526020019060010190808311611736575b5050505050600480548060200260200160405190810160405280929190818152602001828054801561179b57602002820191906000526020600020905b815481526020019060010190808311611787575b505050505061280c565b60ff16145b15611a3d576007600401600f60008381526020019081526020016000206000015490806001815401808255809150506001900390600052602060002001600090919091909150556001600f600083815260200190815260200160002060050160006101000a81548160ff0219169083151502179055506003600f600083815260200190815260200160002060050160016101000a81548160ff021916908360ff1602179055506011600060035481526020019081526020016000206000600f600084815260200190815260200160002060020160009054906101000a900473ffffffffffffffffffffffffffffffffffffffff1673ffffffffffffffffffffffffffffffffffffffff1673ffffffffffffffffffffffffffffffffffffffff168152602001908152602001600020600f60008381526020019081526020016000209080600181540180825580915050600190039060005260206000209060060201600090919091909150600082015481600001556001820181600101908054611934929190612a17565b506002820160009054906101000a900473ffffffffffffffffffffffffffffffffffffffff168160020160006101000a81548173ffffffffffffffffffffffffffffffffffffffff021916908373ffffffffffffffffffffffffffffffffffffffff16021790555060038201548160030155600482015481600401556005820160009054906101000a900460ff168160050160006101000a81548160ff0219169083151502179055506005820160019054906101000a900460ff168160050160016101000a81548160ff021916908360ff1602179055505050611a36600f6000838152602001908152602001600020600301548361297290919063ffffffff16565b9150611c5a565b6000600f600083815260200190815260200160002060050160006101000a81548160ff0219169083151502179055506000600f600083815260200190815260200160002060050160016101000a81548160ff021916908360ff1602179055506011600060035481526020019081526020016000206000600f600084815260200190815260200160002060020160009054906101000a900473ffffffffffffffffffffffffffffffffffffffff1673ffffffffffffffffffffffffffffffffffffffff1673ffffffffffffffffffffffffffffffffffffffff168152602001908152602001600020600f60008381526020019081526020016000209080600181540180825580915050600190039060005260206000209060060201600090919091909150600082015481600001556001820181600101908054611b80929190612a17565b506002820160009054906101000a900473ffffffffffffffffffffffffffffffffffffffff168160020160006101000a81548173ffffffffffffffffffffffffffffffffffffffff021916908373ffffffffffffffffffffffffffffffffffffffff16021790555060038201548160030155600482015481600401556005820160009054906101000a900460ff168160050160006101000a81548160ff0219169083151502179055506005820160019054906101000a900460ff168160050160016101000a81548160ff021916908360ff16021790555050505b5b5b8080600101915050610f95565b508260076005018190555081600760060181905550806007800181905550611c8f610635565b7fe7e5124debb8c2ed068ada3dba4b984042ebe2ae1784730ccf663f7fefbac9b86004600654858585604051611cc99594939291906135d8565b60405180910390a16001935050505090565b600a81565b60106020528060005260406000206000915090508060010154908060050154908060060154908060070154905084565b60078060010154908060050154908060060154908060070154905084565b3373ffffffffffffffffffffffffffffffffffffffff166000809054906101000a900473ffffffffffffffffffffffffffffffffffffffff1673ffffffffffffffffffffffffffffffffffffffff1614611dbd576040517f08c379a0000000000000000000000000000000000000000000000000000000008152600401611db49061376d565b60405180910390fd5b806000806101000a81548173ffffffffffffffffffffffffffffffffffffffff021916908373ffffffffffffffffffffffffffffffffffffffff16021790555050565b600160009054906101000a900473ffffffffffffffffffffffffffffffffffffffff1681565b60065481565b611e478167016345785d8a00006125e090919063ffffffff16565b3414611e88576040517f08c379a0000000000000000000000000000000000000000000000000000000008152600401611e7f906137ad565b60405180910390fd5b6003825114611ecc576040517f08c379a0000000000000000000000000000000000000000000000000000000008152600401611ec3906136ad565b60405180910390fd5b60008090505b6003811015611f3e57600a838281518110611ee957fe5b602002602001015110611f31576040517f08c379a0000000000000000000000000000000000000000000000000000000008152600401611f28906136cd565b60405180910390fd5b8080600101915050611ed2565b506001811015611f83576040517f08c379a0000000000000000000000000000000000000000000000000000000008152600401611f7a906137cd565b60405180910390fd5b611f983460065461297290919063ffffffff16565b600681905550611fa6612abb565b6040518060e0016040528060025481526020018481526020013373ffffffffffffffffffffffffffffffffffffffff168152602001838152602001348152602001600015158152602001600060ff16815250905080600f60006002548152602001908152602001600020600082015181600001556020820151816001019080519060200190612036929190612b13565b5060408201518160020160006101000a81548173ffffffffffffffffffffffffffffffffffffffff021916908373ffffffffffffffffffffffffffffffffffffffff160217905550606082015181600301556080820151816004015560a08201518160050160006101000a81548160ff02191690831515021790555060c08201518160050160016101000a81548160ff021916908360ff1602179055509050506002543373ffffffffffffffffffffffffffffffffffffffff166003547f655cb93e411fe8f5d659ee9239afd718984cf897c3532f3620e04a02ce9a954086863460405161212693929190613540565b60405180910390a4600260008154809291906001019190505550505050565b600381565b6000809054906101000a900473ffffffffffffffffffffffffffffffffffffffff1681565b3373ffffffffffffffffffffffffffffffffffffffff166000809054906101000a900473ffffffffffffffffffffffffffffffffffffffff1673ffffffffffffffffffffffffffffffffffffffff16146121fe576040517f08c379a00000000000000000000000000000000000000000000000000000000081526004016121f59061376d565b60405180910390fd5b806000806101000a81548173ffffffffffffffffffffffffffffffffffffffff021916908373ffffffffffffffffffffffffffffffffffffffff16021790555050565b6060806011600085815260200190815260200160002060008473ffffffffffffffffffffffffffffffffffffffff1673ffffffffffffffffffffffffffffffffffffffff168152602001908152602001600020805480602002602001604051908101604052809291908181526020016000905b828210156123ea57838290600052602060002090600602016040518060e0016040529081600082015481526020016001820180548060200260200160405190810160405280929190818152602001828054801561233057602002820191906000526020600020905b81548152602001906001019080831161231c575b505050505081526020016002820160009054906101000a900473ffffffffffffffffffffffffffffffffffffffff1673ffffffffffffffffffffffffffffffffffffffff1673ffffffffffffffffffffffffffffffffffffffff16815260200160038201548152602001600482015481526020016005820160009054906101000a900460ff161515151581526020016005820160019054906101000a900460ff1660ff1660ff1681525050815260200190600101906122b4565b5050505090508091505092915050565b6000600160009054906101000a900473ffffffffffffffffffffffffffffffffffffffff16905090565b60606000806000806010600087815260200190815260200160002060000160106000888152602001908152602001600020600101546010600089815260200190815260200160002060050154601060008a815260200190815260200160002060060154601060008b815260200190815260200160002060070154848054806020026020016040519081016040528092919081815260200182805480156124e957602002820191906000526020600020905b8154815260200190600101908083116124d5575b505050505094509450945094509450945091939590929450565b60606010600061251f60016003546129c790919063ffffffff16565b815260200190815260200160002060000180548060200260200160405190810160405280929190818152602001828054801561257a57602002820191906000526020600020905b815481526020019060010190808311612566575b5050505050905090565b60025481565b60008082116125ce576040517f08c379a00000000000000000000000000000000000000000000000000000000081526004016125c59061372d565b60405180910390fd5b8183816125d757fe5b04905092915050565b6000808314156125f3576000905061264a565b600082840290508284828161260457fe5b0414612645576040517f08c379a000000000000000000000000000000000000000000000000000000000815260040161263c9061374d565b60405180910390fd5b809150505b92915050565b60008090505b6002548110156126fa57600f600082815260200190815260200160002060008082016000905560018201600061268c9190612b60565b6002820160006101000a81549073ffffffffffffffffffffffffffffffffffffffff0219169055600382016000905560048201600090556005820160006101000a81549060ff02191690556005820160016101000a81549060ff021916905550508080600101915050612656565b5060076000808201600061270e9190612b60565b60018201600090556002820160006127269190612b60565b6003820160006127369190612b60565b6004820160006127469190612b60565b6005820160009055600682016000905560078201600090555050600260009055600460006127749190612b60565b565b600460006127849190612b60565b565b60008090505b6003811015612809576000600a4244846040516020016127ae939291906134a4565b6040516020818303038152906040528051906020012060019004816127cf57fe5b069050600481908060018154018082558091505060019003906000526020600020016000909190919091505550808060010191505061278c565b50565b60008151835114612852576040517f08c379a00000000000000000000000000000000000000000000000000000000081526004016128499061378d565b60405180910390fd5b60008090506060600367ffffffffffffffff8111801561287157600080fd5b506040519080825280602002602001820160405280156128a05781602001602082028036833780820191505090505b50905060008090505b60038160ff1610156129665760008090505b60038160ff16101561295857858160ff16815181106128d657fe5b6020026020010151878360ff16815181106128ed57fe5b60200260200101511480156129165750828160ff168151811061290c57fe5b6020026020010151155b1561294b5783806001019450506001838260ff168151811061293457fe5b602002602001019015159081151581525050612958565b80806001019150506128bb565b5080806001019150506128a9565b50819250505092915050565b6000808284019050838110156129bd576040517f08c379a00000000000000000000000000000000000000000000000000000000081526004016129b49061366d565b60405180910390fd5b8091505092915050565b600082821115612a0c576040517f08c379a0000000000000000000000000000000000000000000000000000000008152600401612a039061370d565b60405180910390fd5b818303905092915050565b828054828255906000526020600020908101928215612a585760005260206000209182015b82811115612a57578254825591600101919060010190612a3c565b5b509050612a659190612b81565b5090565b828054828255906000526020600020908101928215612aaa5760005260206000209182015b82811115612aa9578254825591600101919060010190612a8e565b5b509050612ab79190612b81565b5090565b6040518060e001604052806000815260200160608152602001600073ffffffffffffffffffffffffffffffffffffffff1681526020016000815260200160008152602001600015158152602001600060ff1681525090565b828054828255906000526020600020908101928215612b4f579160200282015b82811115612b4e578251825591602001919060010190612b33565b5b509050612b5c9190612b81565b5090565b5080546000825590600052602060002090810190612b7e9190612b81565b50565b612ba391905b80821115612b9f576000816000905550600101612b87565b5090565b90565b600081359050612bb581613a79565b92915050565b600082601f830112612bcc57600080fd5b8135612bdf612bda826138db565b6138ae565b91508181835260208401935060208101905083856020840282011115612c0457600080fd5b60005b83811015612c345781612c1a8882612c3e565b845260208401935060208301925050600181019050612c07565b5050505092915050565b600081359050612c4d81613a90565b92915050565b600060208284031215612c6557600080fd5b6000612c7384828501612ba6565b91505092915050565b60008060408385031215612c8f57600080fd5b600083013567ffffffffffffffff811115612ca957600080fd5b612cb585828601612bbb565b9250506020612cc685828601612c3e565b9150509250929050565b600060208284031215612ce257600080fd5b6000612cf084828501612c3e565b91505092915050565b60008060408385031215612d0c57600080fd5b6000612d1a85828601612c3e565b9250506020612d2b85828601612ba6565b9150509250929050565b600080600060608486031215612d4a57600080fd5b6000612d5886828701612c3e565b9350506020612d6986828701612ba6565b9250506040612d7a86828701612c3e565b9150509250925092565b6000612d9083836133b5565b905092915050565b6000612da48383613451565b60208301905092915050565b612db9816139e0565b82525050565b612dc8816139e0565b82525050565b612dd7816139ce565b82525050565b6000612de882613938565b612df28185613980565b935083602082028501612e0485613903565b8060005b85811015612e405784840389528151612e218582612d84565b9450612e2c83613959565b925060208a01995050600181019050612e08565b50829750879550505050505092915050565b6000612e5d82613943565b612e678185613991565b9350612e7283613913565b8060005b83811015612ea3578151612e8a8882612d98565b9750612e9583613966565b925050600181019050612e76565b5085935050505092915050565b6000612ebb82613943565b612ec581856139a2565b9350612ed083613913565b8060005b83811015612f01578151612ee88882612d98565b9750612ef383613966565b925050600181019050612ed4565b5085935050505092915050565b6000612f198261394e565b612f2381856139a2565b9350612f2e83613923565b8060005b83811015612f6657612f4382613a59565b612f4d8882612d98565b9750612f5883613973565b925050600181019050612f32565b5085935050505092915050565b612f7c816139f2565b82525050565b612f8b816139f2565b82525050565b6000612f9e6022836139b3565b91507f4e6f20626574732c77696c6c20737461727420746865206e65787420726f756e60008301527f642e0000000000000000000000000000000000000000000000000000000000006020830152604082019050919050565b6000613004601b836139b3565b91507f536166654d6174683a206164646974696f6e206f766572666c6f7700000000006000830152602082019050919050565b6000613044601b836139b3565b91507f546865206c6f747465727920686173206265656e20647261776e2e00000000006000830152602082019050919050565b6000613084602c836139b3565b91507f546865206e756d626572206f662073656c6563746564206e756d62657273206960008301527f7320696e636f72726563742e00000000000000000000000000000000000000006020830152604082019050919050565b60006130ea6024836139b3565b91507f5468652073656c6563746564206e756d626572206973206f7574206f6620726160008301527f6e67652e000000000000000000000000000000000000000000000000000000006020830152604082019050919050565b60006131506029836139b3565b91507f546865207072697a65206f70656e696e67206e756d626572206973206f75742060008301527f6f662072616e67652e00000000000000000000000000000000000000000000006020830152604082019050919050565b60006131b6601e836139b3565b91507f536166654d6174683a207375627472616374696f6e206f766572666c6f7700006000830152602082019050919050565b60006131f6601a836139b3565b91507f536166654d6174683a206469766973696f6e206279207a65726f0000000000006000830152602082019050919050565b60006132366021836139b3565b91507f536166654d6174683a206d756c7469706c69636174696f6e206f766572666c6f60008301527f77000000000000000000000000000000000000000000000000000000000000006020830152604082019050919050565b600061329c6020836139b3565b91507f4f776e61626c653a2063616c6c6572206973206e6f7420746865206f776e65726000830152602082019050919050565b60006132dc6033836139b3565b91507f546865206e756d626572206c656e677468206f662073656c656374656420616e60008301527f64206f70656e696e67206d7573742073616d65000000000000000000000000006020830152604082019050919050565b6000613342601e836139b3565b91507f546865207469636b657420707269636520697320302e312065746865722e00006000830152602082019050919050565b60006133826020836139b3565b91507f796f75206d757374206174206c6561737420627579206f6e6520636f75706c656000830152602082019050919050565b600060e0830160008301516133cd6000860182613451565b50602083015184820360208601526133e58282612e52565b91505060408301516133fa6040860182612db0565b50606083015161340d6060860182613451565b5060808301516134206080860182613451565b5060a083015161343360a0860182612f73565b5060c083015161344660c0860182613486565b508091505092915050565b61345a81613a1e565b82525050565b61346981613a1e565b82525050565b61348061347b82613a1e565b613a4f565b82525050565b61348f81613a28565b82525050565b61349e81613a28565b82525050565b60006134b0828661346f565b6020820191506134c0828561346f565b6020820191506134d0828461346f565b602082019150819050949350505050565b60006020820190506134f66000830184612dce565b92915050565b600060208201905081810360008301526135168184612ddd565b905092915050565b600060208201905081810360008301526135388184612eb0565b905092915050565b6000606082019050818103600083015261355a8186612eb0565b90506135696020830185613460565b6135766040830184613460565b949350505050565b600060a08201905081810360008301526135988188612eb0565b90506135a76020830187613460565b6135b46040830186613460565b6135c16060830185613460565b6135ce6080830184613460565b9695505050505050565b600060a08201905081810360008301526135f28188612f0e565b90506136016020830187613460565b61360e6040830186613460565b61361b6060830185613460565b6136286080830184613460565b9695505050505050565b60006020820190506136476000830184612f82565b92915050565b6000602082019050818103600083015261366681612f91565b9050919050565b6000602082019050818103600083015261368681612ff7565b9050919050565b600060208201905081810360008301526136a681613037565b9050919050565b600060208201905081810360008301526136c681613077565b9050919050565b600060208201905081810360008301526136e6816130dd565b9050919050565b6000602082019050818103600083015261370681613143565b9050919050565b60006020820190508181036000830152613726816131a9565b9050919050565b60006020820190508181036000830152613746816131e9565b9050919050565b6000602082019050818103600083015261376681613229565b9050919050565b600060208201905081810360008301526137868161328f565b9050919050565b600060208201905081810360008301526137a6816132cf565b9050919050565b600060208201905081810360008301526137c681613335565b9050919050565b600060208201905081810360008301526137e681613375565b9050919050565b60006020820190506138026000830184613460565b92915050565b600060c08201905061381d6000830189613460565b61382a6020830188612dbf565b6138376040830187613460565b6138446060830186613460565b6138516080830185612f82565b61385e60a0830184613495565b979650505050505050565b600060808201905061387e6000830187613460565b61388b6020830186613460565b6138986040830185613460565b6138a56060830184613460565b95945050505050565b6000604051905081810181811067ffffffffffffffff821117156138d157600080fd5b8060405250919050565b600067ffffffffffffffff8211156138f257600080fd5b602082029050602081019050919050565b6000819050602082019050919050565b6000819050602082019050919050565b60008190508160005260206000209050919050565b600081519050919050565b600081519050919050565b600081549050919050565b6000602082019050919050565b6000602082019050919050565b6000600182019050919050565b600082825260208201905092915050565b600082825260208201905092915050565b600082825260208201905092915050565b600082825260208201905092915050565b6000819050919050565b60006139d9826139fe565b9050919050565b60006139eb826139fe565b9050919050565b60008115159050919050565b600073ffffffffffffffffffffffffffffffffffffffff82169050919050565b6000819050919050565b600060ff82169050919050565b6000613a48613a4383613a6c565b6139c4565b9050919050565b6000819050919050565b6000613a658254613a35565b9050919050565b6000600182049050919050565b613a82816139ce565b8114613a8d57600080fd5b50565b613a9981613a1e565b8114613aa457600080fd5b5056fea2646970667358221220c0ce2bb3f4a851ba344db2e282376a80140ad463a8d8b5d70181d9a1fcd04d7264736f6c63430006060033",
  "immutableReferences": {},
  "source": "/**\n *SPDX-License-Identifier: GPL-2.0-only\n */\n\n// `ThreeD``Lottery`\n// `LotteryResult``buyLottery``drawLottery`\n// \n// \n// \n// \n// `lotteryResult`\n// \n\npragma solidity >=0.6.0 <0.8.0;\npragma experimental ABIEncoderV2;\nimport \"openzeppelin-solidity/contracts/math/SafeMath.sol\";\n\ncontract Ownable {\n    // \n    address public owner;\n\n    // \n    address public feeAccount;\n\n    function feeOwner() public view returns (address) {\n        return feeAccount;\n    }\n\n    //_owner\n    modifier onlyOwner() {\n        require(owner == msg.sender, \"Ownable: caller is not the owner\"); \n        _;\n    }\n\n    // \n    function changeOwner(address _newOwner) public onlyOwner {\n        owner = _newOwner;\n    }\n\n    // \n    function changefeeOwner(address _newFeeOwner) public onlyOwner {\n        owner = _newFeeOwner;\n    }\n}\n\n// \ncontract ThreeD is Ownable {\n    using SafeMath for uint256; //uint256 sub ,add\n\n    // \n    struct Lottery {\n        uint256 id; // ID\n        uint256[] numbers; // \n        address payable player; // \n        uint256 couple; // \n        uint256 amount; // \n        bool claimed; // \n        uint8 prizeType; //  0 11 22 33\n    }\n\n    // \n    struct LotteryResult {\n        uint256[] numberResult; // \n        uint256 prizePool; // \n        uint256[] firstWinId; // ID\n        uint256[] secondWinId; // ID\n        uint256[] thirdWinId; // ID\n        uint256 countFirst; // \n        uint256 countSecond; // \n        uint256 countThird; // \n    }\n\n    // IDkeyaddress\n    uint256 public lotteryId;\n\n    // \n    uint256 public constant ticketPrice = 0.1 ether;\n\n    // \n    uint256 public round = 1;\n\n    // \n    uint256[] public threeRandomNumbers;\n\n    // \n    uint256 public constant numberRange = 10;\n\n    // \n    uint256 public constant lotterySize = 3;\n\n    // \n    uint256 public lastExecuted;\n\n    // \n    uint256 public prizePool;\n\n    // \n    LotteryResult public lotteryResult;\n\n    //  \n    // key:value => id : Lottery\n    mapping(uint256 => Lottery) public lotteries;\n\n    //  key:value = round LotteryResult\n    mapping(uint256 => LotteryResult) public lotteriesHis;\n\n    // key:key:value = round:playeraddress:Lottery[] \n    mapping(uint256 => mapping(address => Lottery[])) public allHis;\n\n    // \n    event BuyLottery(\n        uint256 indexed round,\n        address indexed player,\n        uint256 indexed lotteryId,\n        uint256[] numbers,\n        uint256 couple,\n        uint256 amount\n    );\n\n    // \n    event DrawLottery(\n        uint256[] threeRandomNumbers,\n        uint256 prizePool,\n        uint256 countFirst,\n        uint256 countSecond,\n        uint256 countThird\n    );\n\n    constructor(address _feeAccount) public {\n        owner = msg.sender; // \n        feeAccount = _feeAccount; // \n    }\n\n    // \n    // `randomNumbers``generateRandomNumbers``keccak256`256`abi.encodePacked``i``keccak256`0910\n    function generateRandomNumbers() private {\n        for (uint256 i = 0; i < lotterySize; i++) {\n            uint256 randomNumber = uint256(\n                keccak256(\n                    abi.encodePacked(block.timestamp, block.difficulty, i)\n                )\n            ) % 10;\n            threeRandomNumbers.push(randomNumber);\n        }\n    }\n\n    // \n    function buyLottery(\n        uint256[] memory _numbers,\n        uint256 _couple\n    ) public payable {\n        // 10\n        // require(block.timestamp >= lastExecuted + 600, \"Can only buy once every 10 minutes\");\n        require(msg.value == ticketPrice.mul(_couple),\"The ticket price is 0.1 ether.\");\n        require(_numbers.length == lotterySize,\"The number of selected numbers is incorrect.\");\n        for (uint256 i = 0; i < lotterySize; i++) {\n            require(\n                _numbers[i] < numberRange,\n                \"The selected number is out of range.\"\n            );\n        }\n        // \n        require(_couple >= 1, \"you must at least buy one couple\");\n\n        prizePool = prizePool.add(msg.value); //  = *\n        Lottery memory temLottery;\n        temLottery = Lottery(\n            lotteryId,\n            _numbers,\n            payable(msg.sender),\n            _couple,\n            msg.value,\n            false,\n            0\n        );\n        lotteries[lotteryId] = temLottery;\n        emit BuyLottery(round, msg.sender, lotteryId, _numbers, _couple, msg.value);\n        lotteryId++;\n    }\n    // \n    function drawLottery() public returns (bool) {\n        // \n        restoreRandomNumbers();\n        // 9\n        // require(block.timestamp >= lastExecuted + 500, \"Can only generate once every 9 minutes\");\n        // lotteryId = 0\n        require(lotteryId > 0, \"No bets,will start the next round.\"); \n        // \n        require(threeRandomNumbers.length == 0, \"The lottery has been drawn.\");\n        generateRandomNumbers(); // \n        require(threeRandomNumbers.length == lotterySize,\"The number of selected numbers is incorrect.\");\n        for (uint256 i = 0; i < lotterySize; i++) {\n            require(\n                threeRandomNumbers[i] < numberRange,\n                \"The prize opening number is out of range.\"\n            );\n        }\n\n        lotteryResult.numberResult = threeRandomNumbers; // \n        lotteryResult.prizePool = prizePool; // \n\n        uint256 countFirst = 0; // \n        uint256 countSecond = 0; // \n        uint256 countThird = 0; // \n\n        for (uint256 i = 0; i < lotteryId; i++) {\n            // \n            if (\n                lotteries[i].claimed == false &&\n                compareNumbers(lotteries[i].numbers, threeRandomNumbers) == 3\n            ) {\n                lotteryResult.firstWinId.push(lotteries[i].id); //ID\n                lotteries[i].claimed = true; // True\n                lotteries[i].prizeType = 1; // 1\n                allHis[round][lotteries[i].player].push(lotteries[i]);  //\n                countFirst = countFirst.add(lotteries[i].couple); //  = \n            } else if (\n                // \n                lotteries[i].claimed == false &&\n                compareNumbers(lotteries[i].numbers, threeRandomNumbers) == 2\n            ) {\n                lotteryResult.secondWinId.push(lotteries[i].id); //ID\n                lotteries[i].claimed = true; // True\n                lotteries[i].prizeType = 2; // 2\n                allHis[round][lotteries[i].player].push(lotteries[i]);  //\n                countSecond = countSecond.add(lotteries[i].couple); //  = \n            } else if (\n                // \n                lotteries[i].claimed == false &&\n                compareNumbers(lotteries[i].numbers, threeRandomNumbers) == 1\n            ) {\n                lotteryResult.thirdWinId.push(lotteries[i].id); //ID\n                lotteries[i].claimed = true; // True\n                lotteries[i].prizeType = 3; // 3\n                allHis[round][lotteries[i].player].push(lotteries[i]);  // \n                countThird = countThird.add(lotteries[i].couple); //  = \n            } else {\n                lotteries[i].claimed = false; // false\n                lotteries[i].prizeType = 0; // \n                allHis[round][lotteries[i].player].push(lotteries[i]);  // \n            }\n        }\n\n        // \n        lotteryResult.countFirst = countFirst;\n        lotteryResult.countSecond = countSecond;\n        lotteryResult.countThird = countThird;\n        // \n        bonusLottery();\n        emit DrawLottery(threeRandomNumbers,prizePool,countFirst,countSecond,countThird);\n        return true;\n    }\n\n    // \n    function bonusLottery() public {\n        uint256 firstPool = prizePool.div(100).mul(40); // \n        uint256 secondPool = prizePool.div(100).mul(20); // \n        uint256 thirdPool = prizePool.div(100).mul(10); // \n        uint256 handlingFee = prizePool.div(100).mul(10); // \n        uint256 accPool = prizePool.div(100).mul(20); // 20%\n\n        uint256 firstBalance = 0; // \n        uint256 secondBalance = 0; // \n        uint256 thirdBalance = 0; // \n        if (\n            lotteryResult.countFirst > 0 ||\n            lotteryResult.countSecond > 0 ||\n            lotteryResult.countThird > 0\n        ) {\n            // \n            if (lotteryResult.countFirst > 0) {\n                uint256 firstPerPrize = firstPool.div(lotteryResult.countFirst);\n                for (uint256 i = 0; i < lotteryResult.firstWinId.length; i++) {\n                    lotteries[lotteryResult.firstWinId[i]].player.transfer(\n                        firstPerPrize.mul(\n                            lotteries[lotteryResult.firstWinId[i]].couple\n                        )\n                    );\n                }\n                firstBalance = 0;\n            } else {\n                firstBalance = firstPool;\n            }\n\n            // \n            if (lotteryResult.countSecond > 0) {\n                uint256 secondPerPrize = secondPool.div(\n                    lotteryResult.countSecond\n                );\n                for (uint256 i = 0; i < lotteryResult.secondWinId.length; i++) {\n                    lotteries[lotteryResult.secondWinId[i]].player.transfer(\n                        secondPerPrize.mul(\n                            lotteries[lotteryResult.secondWinId[i]].couple\n                        )\n                    );\n                }\n                secondBalance = 0;\n            } else {\n                secondBalance = secondPool;\n            }\n\n            // \n            if (lotteryResult.countThird > 0) {\n                uint256 thirdPerPrize = thirdPool.div(lotteryResult.countThird);\n                for (uint256 i = 0; i < lotteryResult.thirdWinId.length; i++) {\n                    lotteries[lotteryResult.thirdWinId[i]].player.transfer(\n                        thirdPerPrize.mul(\n                            lotteries[lotteryResult.thirdWinId[i]].couple\n                        )\n                    );\n                }\n                thirdBalance = 0;\n            } else {\n                thirdBalance = thirdPool;\n            }\n            payable(feeAccount).transfer(handlingFee); // \n            //  + 20%\n            prizePool = firstBalance + secondBalance + thirdBalance + accPool;\n            // \n            lotteriesHis[round] = lotteryResult;\n            round++; // 1\n        } else {\n            // \n            payable(feeAccount).transfer(handlingFee); // \n            //  - 10%\n            prizePool = prizePool - handlingFee;\n            // \n            lotteriesHis[round] = lotteryResult;\n            round++; // 1\n        }\n        // \n        restoreState();\n    }\n\n    // \n    function compareNumbers(uint256[] memory _arr1,uint256[] memory _arr2) private pure returns (uint8) {\n        // \n        require(_arr1.length == _arr2.length,\"The number length of selected and opening must same\");\n        uint8 matches = 0;\n        bool[] memory checked = new bool[](3);\n        for (uint8 i = 0; i < lotterySize; i++) {\n            for (uint8 j = 0; j < lotterySize; j++) {\n                if (_arr1[i] == _arr2[j] && !checked[j]) {\n                    matches++;\n                    checked[j] = true;\n                    break;\n                }\n            }\n        }\n        return matches;\n    }\n\n    // \n    function restoreState() private {\n        // lotteries\n        for (uint256 i = 0; i < lotteryId; i++) {\n            delete lotteries[i];\n        }\n        delete lotteryResult; // \n        delete lotteryId; // ID\n        delete threeRandomNumbers; // \n    }\n\n    // \n    function restoreRandomNumbers() private {\n        delete threeRandomNumbers; \n    }\n\n    // \n    function readLastWinNumbers() public view returns (uint256[] memory) {\n        return lotteriesHis[round.sub(1)].numberResult;\n    }\n\n    // \n    function readLotteriesHis(uint256 _couple) public view returns(\n        uint256[] memory,\n        uint256,\n        uint256,\n        uint256,\n        uint256 \n    ){\n       return (\n        lotteriesHis[_couple].numberResult,\n        lotteriesHis[_couple].prizePool,\n        lotteriesHis[_couple].countFirst,\n        lotteriesHis[_couple].countSecond,\n        lotteriesHis[_couple].countThird\n       );\n    } \n\n    // \n    function readAllHis(uint256 _round,address _address) public view returns(\n        Lottery[] memory\n    ){\n        Lottery[] memory newLotteryArray = allHis[_round][_address];\n        return newLotteryArray;\n    }\n}",
  "sourcePath": "D:\\\\React__20231030\\lottery_ticket\\contracts\\ThreeD.sol",
  "compiler": {
    "name": "solc",
    "version": "0.6.6+commit.6c089d02.Emscripten.clang"
  },
  "schemaVersion": "3.4.16",
  "updatedAt": "2023-11-11T04:15:20.231Z",
  "networkType": "ethereum",
  "devdoc": {
    "methods": {}
  },
  "userdoc": {
    "methods": {}
  }
}